:100000000C942A000C9447000C9447000C94470071
:100010000C9447000C9447000C94D2150C944700A4
:100020000C9447000C9447000C940B150C94BF14CF
:100030000C9447000C9447000C943F170C94470015
:100040000C9447000C9447000C9447000C94470014
:100050000C94470011241FBECFE5D8E0DEBFCDBF12
:1000600010E0A0E6B0E0E6E1F6E302C005900D92F4
:10007000A43EB107D9F710E0A4EEB0E001C01D9294
:10008000A63FB107E1F70E9496170C94091B0C9448
:100090000000EF92FF920F931F937B018C0120E0F1
:1000A00030E040E05FE40E94F50388238CF0C80153
:1000B000B70120E030E040E05FE40E94C1010E940F
:1000C00055049B01AC01205030404040504806C0D0
:1000D000C801B7010E9455049B01AC01B901CA01D6
:1000E0001F910F91FF90EF900895A0E0B0E0EBE733
:1000F000F0E00C94D21ADC012B01FA019C919230B1
:1001000008F439C1EB018881823008F433C194309E
:1001100069F4843009F02FC111969C91119789815F
:10012000981709F428C1ACEDB0E025C1843009F47A
:1001300021C18230A9F4923009F01DC19A01AD01AC
:1001400088E0EA010990AE01E90109929E0181501F
:10015000C1F7E201898111969C918923818308C1AD
:10016000923009F407C112962D903C901397EB0141
:100170008A819B811496AD90BD90CD90DC901797AD
:10018000EC80FD800E811F819101281B390BB90184
:1001900037FF04C066277727621B730B6032710537
:1001A0000CF061C0121613066CF537014801062EDB
:1001B00004C096948794779467940A94D2F721E0C8
:1001C00030E040E050E004C0220F331F441F551FB1
:1001D0006A95D2F721503040404050402E213F21B7
:1001E00040235123211531054105510521F021E01E
:1001F00030E040E050E079018A01E628F72808293C
:1002000019293CC0232BD1F1260E371E350146019A
:10021000062E04C096948794779467940A94D2F734
:1002200021E030E040E050E004C0220F331F441FC3
:10023000551F6A95D2F721503040404050402A2146
:100240003B214C215D21211531054105510521F04E
:1002500021E030E040E050E059016A01A628B728CB
:10026000C828D9280BC0821593052CF01C01AA249C
:10027000BB24650103C0EE24FF24870111969C91E5
:10028000D20111968C91981709F445C0992339F041
:10029000A80197012A193B094C095D0906C0A6016E
:1002A00095012E193F09400B510B57FD08C01182D3
:1002B0003382228224833583468357831DC081E0A5
:1002C00081833382228288279927DC01821B930B4A
:1002D000A40BB50B84839583A683B7830DC0220F2F
:1002E000331F441F551F24833583468357838281E0
:1002F000938101979383828324813581468157813D
:10030000DA01C9010197A109B1098F5F9F4FAF4F72
:10031000BF4328F30BC0918333822282EA0CFB1C7B
:100320000C1D1D1DE482F5820683178383E0808304
:10033000248135814681578157FF1AC0C901AA27F8
:1003400097FDA095BA2F81709070A070B0705695EF
:10035000479537952795822B932BA42BB52B848318
:100360009583A683B7838281938101969383828349
:10037000DF0101C0D201CD01CDB7DEB7E2E10C94BF
:10038000EE1AA0E2B0E0E7ECF1E00C94DE1A69832B
:100390007A838B839C832D833E834F835887E9E048
:1003A000EE2EF12CEC0EFD1ECE010196B7010E943F
:1003B0007E058E010F5E1F4FCE010596B8010E948B
:1003C0007E058A8991E089278A8BC701B801AE0131
:1003D000475E5F4F0E9475000E94A904A096E6E068
:1003E0000C94FA1AA0E2B0E0E8EFF1E00C94DE1A07
:1003F00069837A838B839C832D833E834F835887C5
:10040000F9E0EF2EF12CEC0EFD1ECE010196B701A6
:100410000E947E058E010F5E1F4FCE010596B8012A
:100420000E947E05C701B801AE01475E5F4F0E9482
:1004300075000E94A904A096E6E00C94FA1AA0E2C6
:10044000B0E0E5E2F2E00C94D21A69837A838B8300
:100450009C832D833E834F835887CE010196BE0136
:10046000675F7F4F0E947E05CE010596BE016F5EDD
:100470007F4F0E947E059985923088F0898982306D
:10048000C8F0943019F4823051F404C0843029F457
:10049000923081F48CED90E0C6C0923049F420E0B7
:1004A0009A858A89981321E02A87CE010996BBC0D4
:1004B000823049F420E09A858A89981321E02A8BBA
:1004C000CE014196B0C02D843E844F8458886D88FB
:1004D0007E888F88988CEE24FF248701AA24BB2471
:1004E000650140E050E060E070E0E0E0F0E0C10174
:1004F00081709070892BE9F0E60CF71C081D191D1E
:100500009A01AB012A0D3B1D4C1D5D1D80E090E062
:10051000A0E0B0E0E614F7040805190520F481E036
:1005200090E0A0E0B0E0BA01A901480F591F6A1F8E
:100530007B1FAA0CBB1CCC1CDD1C97FE08C081E0F5
:1005400090E0A0E0B0E0A82AB92ACA2ADB2A3196B6
:10055000E032F10549F0660C771C881C991C569412
:10056000479437942794C3CFFA85EA892B893C892D
:100570008B859C85280F391F2E5F3F4F17C0CA01FE
:1005800081709070892B61F016950795F794E79428
:1005900080E090E0A0E0B0E8E82AF92A0A2B1B2BC3
:1005A00076956795579547952F5F3F4F77FDE7CF36
:1005B0000CC0440F551F661F771F17FD4160EE0CDE
:1005C000FF1C001F111F21503040403090E05907A0
:1005D00090E0690790E4790760F32B8F3C8FDB0193
:1005E000CA018F779070A070B07080349105A1051A
:1005F000B10561F447FD0AC0E114F10401051105DC
:1006000029F0405C5F4F6F4F7F4F40781A8EFE1786
:1006100011F081E08A8F4D8F5E8F6F8F78A383E01A
:10062000898FCE0149960E94A904A096E2E10C941C
:10063000EE1AA8E1B0E0EFE1F3E00C94DA1A698376
:100640007A838B839C832D833E834F835887B9E0C5
:10065000EB2EF12CEC0EFD1ECE010196B7010E948F
:100660007E058E010F5E1F4FCE010596B8010E94D8
:100670007E052985223008F47EC03989323010F495
:10068000B8017CC08A859A8989278A87243011F02D
:10069000223031F4231709F06EC06CED70E06EC0AB
:1006A000343039F41D861E861F86188A1C861B86E8
:1006B00004C0323021F484E08987B7015FC02B8504
:1006C0003C858B899C89281B390B3C872B87ED84C3
:1006D000FE840F851889AD88BE88CF88D88CEA142F
:1006E000FB040C051D0540F4EE0CFF1C001F111F40
:1006F000215030403C872B8720E030E040E050E044
:1007000080E090E0A0E0B0E460E070E0EA14FB0478
:100710000C051D0540F0282B392B4A2B5B2BEA18C2
:10072000FB080C091D09B695A79597958795EE0CC2
:10073000FF1C001F111F6F5F7F4F6F31710531F775
:10074000DA01C9018F779070A070B0708034910584
:10075000A105B10561F427FD0AC0E114F10401050A
:10076000110529F0205C3F4F4F4F5F4F20782D87B8
:100770003E874F87588BBE01675F7F4FCB010E943A
:10078000A9046896EAE00C94F61AA8E1B0E0EBEC54
:10079000F3E00C94DE1A69837A838B839C832D8328
:1007A0003E834F83588789E0E82EF12CEC0EFD1E26
:1007B000CE010196B7010E947E058E010F5E1F4F8C
:1007C000CE010596B8010E947E058985823040F0F1
:1007D0008989823028F0C701B8010E94F60501C05E
:1007E0008FEF6896E6E00C94FA1AA8E1B0E0EBEF20
:1007F000F3E00C94DE1A69837A838B839C832D83C8
:100800003E834F83588789E0E82EF12CEC0EFD1EC5
:10081000CE010196B7010E947E058E010F5E1F4F2B
:10082000CE010596B8010E947E058985823040F090
:100830008989823028F0C701B8010E94F60501C0FD
:100840008FEF6896E6E00C94FA1AA8E1B0E0EBE2CC
:10085000F4E00C94DE1A69837A838B839C832D8366
:100860003E834F83588789E0E82EF12CEC0EFD1E65
:10087000CE010196B7010E947E058E010F5E1F4FCB
:10088000CE010596B8010E947E058985823040F030
:100890008989823028F0C701B8010E94F60501C09D
:1008A00081E06896E6E00C94FA1AACE0B0E0EBE583
:1008B000F4E00C94E21A69837A838B839C83CE01E3
:1008C0000196BE016B5F7F4F0E947E058D81823055
:1008D00061F1823050F1843021F48E81882351F10E
:1008E0002EC02F81388537FD20C06E812F31310514
:1008F0001CF06623F9F023C08EE190E0821B930B7D
:1009000029853A854B855C8504C056954795379572
:1009100027958A95D2F76623B1F05095409530958A
:1009200021953F4F4F4F5F4F0EC020E030E040E039
:1009300050E009C02FEF3FEF4FEF5FE704C020E02A
:1009400030E040E050E8B901CA012C96E2E00C9496
:10095000FE1ADF92EF92FF920F931F93FC01E48047
:10096000F58006811781D1808081823048F480E053
:1009700090E0A0E1B0E0E82AF92A0A2B1B2BA5C0E1
:10098000843009F49FC0823021F4EE24FF248701D3
:1009900005C0E114F1040105110519F4E0E0F0E0EF
:1009A00096C0628173819FEF623879070CF05BC05B
:1009B00022E83FEF261B370B2A3131052CF020E0CF
:1009C00030E040E050E02AC0B801A701022E04C088
:1009D00076956795579547950A94D2F781E090E010
:1009E000A0E0B0E004C0880F991FAA1FBB1F2A9582
:1009F000D2F70197A109B1098E219F21A023B1232C
:100A00000097A105B10521F081E090E0A0E0B0E001
:100A10009A01AB01282B392B4A2B5B2BDA01C90138
:100A20008F779070A070B07080349105A105B105EA
:100A300039F427FF09C0205C3F4F4F4F5F4F04C080
:100A4000215C3F4F4F4F5F4FE0E0F0E02030A0E0EF
:100A50003A07A0E04A07A0E45A0710F0E1E0F0E00E
:100A600079018A0127C06038710564F5FB01E158FE
:100A7000FF4FD801C7018F779070A070B07080349D
:100A80009105A105B10539F4E7FE0DC080E490E0C1
:100A9000A0E0B0E004C08FE390E0A0E0B0E0E80E9A
:100AA000F91E0A1F1B1F17FF05C016950795F7941F
:100AB000E794319687E016950795F794E7948A9521
:100AC000D1F705C0EE24FF248701EFEFF0E06E2F91
:100AD000679566276795902F9F77D794DD24D794E5
:100AE0008E2F8695492F462B582F5D29B701CA01B5
:100AF0001F910F91FF90EF90DF900895FC01DB01B3
:100B0000408151812281622F6F7770E0221F22275E
:100B1000221F9381892F880F822B282F30E0991F65
:100B20009927991F11969C93119721153105A9F5C5
:100B3000411551056105710511F482E037C082E865
:100B40009FEF13969C938E9312979A01AB0167E0E7
:100B5000220F331F441F551F6A95D1F783E08C93F2
:100B60000DC0220F331F441F551F12968D919C916B
:100B70001397019713969C938E931297203080E0E1
:100B8000380780E0480780E4580758F314962D93FF
:100B90003D934D935C93179708952F3F310579F45A
:100BA000411551056105710519F484E08C93089590
:100BB00064FF03C081E08C9312C01C9210C02F57B9
:100BC000304013963C932E93129783E08C9387E0EA
:100BD000440F551F661F771F8A95D1F770641496CE
:100BE0004D935D936D937C93179708951F93DC014C
:100BF000FB019C91923008F447C08081823008F458
:100C000043C0943051F411961C91843099F5818140
:100C1000682F70E0611B71093FC0843021F0923071
:100C200031F48230B9F18181882389F12DC0119688
:100C30001C9111978230F1F081811817D9F4129626
:100C40002D913C911397828193818217930794F0A1
:100C500028173907BCF014968D919D910D90BC9189
:100C6000A02D2481358146815781281739074A07ED
:100C70005B0718F4112341F00AC082179307A407F9
:100C8000B50740F4112319F061E070E005C06FEF83
:100C90007FEF02C060E070E0CB011F9108950F93D9
:100CA0001F93DF93CF93CDB7DEB7CD54D0400FB6AF
:100CB000F894DEBF0FBECDBFFE01E35BFF4F81E0C6
:100CC0008083FE01E75BFF4F80E090E0A8EFB1E496
:100CD00080839183A283B3838E010B5B1F4FFE0140
:100CE000E75BFF4F608171818281938120E030E07A
:100CF0004AEF54E40E941F02DC01CB01F80180831B
:100D00009183A283B383FE01EB5BFF4F608171810E
:100D10008281938120E030E040E85FE30E94250477
:100D2000882344F4FE01ED5BFF4F81E090E0918366
:100D3000808364C0FE01EB5BFF4F60817181828123
:100D4000938120E03FEF4FE757E40E94C503181658
:100D50000CF043C0FE01E75BFF4F6081718182812F
:100D6000938120E030E040E251E40E941F02DC0168
:100D7000CB018E010D5B1F4FBC01CD010E944900CC
:100D8000DC01CB01F801918380831FC0FE01EF5B82
:100D9000FF4F88EC90E091838083FE01EF5BFF4F73
:100DA000808191810197F1F7FE01EF5BFF4F918305
:100DB0008083DE01AD5BBF4FFE01ED5BFF4F8081A5
:100DC0009181019711969C938E93FE01ED5BFF4FED
:100DD000808191810097D1F624C08E010D5B1F4F59
:100DE000FE01EB5BFF4F60817181828193810E94E4
:100DF0004900DC01CB01F80191838083FE01ED5BAA
:100E0000FF4F80819181FE01FF9691838083FE01D7
:100E1000FF96808191810197F1F7FE01FF96918302
:100E2000808388E30E94080A80E090E0A0E2B2E4B8
:100E30008BAF9CAFADAFBEAF6BAD7CAD8DAD9EAD9E
:100E40002BEA3AEA4AE250E40E941F02DC01CB019D
:100E50008FAB98AFA9AFBAAF6FA978AD89AD9AAD96
:100E600020E030E040E85FE30E94250488231CF482
:100E700081E08EAB91C06FA978AD89AD9AAD20E0CD
:100E800030E04FE753E40E94C50318160CF07BC016
:100E90006BAD7CAD8DAD9EAD20E030E04AE754E413
:100EA0000E941903DC01CB018AAB9BABACABBDABA1
:100EB0006AA97BA98CA99DA920E030E04AEF54E4FF
:100EC0000E941F02DC01CB018EA79FA7A8ABB9AB84
:100ED0006EA57FA588A999A920E030E040E85FE3EE
:100EE0000E94250488232CF481E090E09DA78CA724
:100EF0003FC06EA57FA588A999A920E03FEF4FE7E5
:100F000057E40E94C50318164CF56AA97BA98CA961
:100F10009DA920E030E040E251E40E941F02DC0184
:100F2000CB01BC01CD010E944900DC01CB019DA792
:100F30008CA70FC088EC90E09BA78AA78AA59BA5E9
:100F40000197F1F79BA78AA78CA59DA501979DA75F
:100F50008CA78CA59DA5009769F724C06EA57FA5D9
:100F600088A999A90E944900DC01CB019DA78CA703
:100F70008CA59DA599A788A788A599A50197F1F7A4
:100F800099A788A70FC06FA978AD89AD9AAD0E94C7
:100F90004900DC01CB018EAB8EA98FA38FA18A956E
:100FA000F1F78FA38FE00E94080A80E090E0A0E2B2
:100FB000B2E48BA39CA3ADA3BEA36BA17CA18DA126
:100FC0009EA12BEA3AEA4AE250E40E941F02DC01A9
:100FD000CB018F8F98A3A9A3BAA36F8D78A189A104
:100FE0009AA120E030E040E85FE30E9425048823D6
:100FF0001CF481E08E8F91C06F8D78A189A19AA198
:1010000020E030E04FE753E40E94C50318160CF0CF
:101010007BC06BA17CA18DA19EA120E030E04AE7BE
:1010200054E40E941903DC01CB018A8F9B8FAC8FA3
:10103000BD8F6A8D7B8D8C8D9D8D20E030E04AEFD9
:1010400054E40E941F02DC01CB018E8B9F8BA88F82
:10105000B98F6E897F89888D998D20E030E040E8D6
:101060005FE30E94250488232CF481E090E09D8BAF
:101070008C8B3FC06E897F89888D998D20E03FEFF2
:101080004FE757E40E94C50318164CF56A8D7B8D17
:101090008C8D9D8D20E030E040E251E40E941F02E3
:1010A000DC01CB01BC01CD010E944900DC01CB0178
:1010B0009D8B8C8B0FC088EC90E09B8B8A8B8A89F0
:1010C0009B890197F1F79B8B8A8B8C899D8901976E
:1010D0009D8B8C8B8C899D89009769F724C06E89C4
:1010E0007F89888D998D0E944900DC01CB019D8B01
:1010F0008C8B8C899D89998B888B8889998901979C
:10110000F1F7998B888B0FC06F8D78A189A19AA177
:101110000E944900DC01CB018E8F8E8D8F878F85D9
:101120008A95F1F78F8781E00E94080A80E090E0BD
:10113000A0E0B0E48B879C87AD87BE876B857C85FC
:101140008D859E8520E030E04AEF54E40E941F0226
:10115000DC01CB018F839887A987BA876F81788557
:1011600089859A8520E030E040E85FE30E9425040D
:1011700088232CF481E090E09E838D833FC06F81B3
:10118000788589859A8520E03FEF4FE757E40E94F4
:10119000C50318164CF56B857C858D859E8520E0F2
:1011A00030E040E251E40E941F02DC01CB01BC01AF
:1011B000CD010E944900DC01CB019E838D830FC0CD
:1011C00088EC90E09C838B838B819C810197F1F765
:1011D0009C838B838D819E8101979E838D838D81DE
:1011E0009E81009769F714C06F81788589859A85FB
:1011F0000E944900DC01CB019E838D838D819E81FD
:101200009A83898389819A810197F1F79A838983E7
:1012100086E00E94080AFE01E35BFF4F8081C35B0A
:10122000DF4F0FB6F894DEBF0FBECDBFCF91DF9179
:101230001F910F910895DF93CF93CDB7DEB76A97D3
:101240000FB6F894DEBF0FBECDBF8A8F81E0898FC5
:1012500081E060E041E00E941F0F81E061E040E03A
:101260000E941F0F82E06A8D0E949F1181E062E060
:1012700041E00E941F0F80E090E0A0E8BFE38D8B6B
:101280009E8BAF8BB88F6D897E898F89988D2BEA65
:101290003AEA4AE250E40E941F02DC01CB01898B4A
:1012A0009A8BAB8BBC8B69897A898B899C8920E06E
:1012B00030E040E85FE30E94250488231CF481E0CD
:1012C000888B91C069897A898B899C8920E030E07C
:1012D0004FE753E40E94C50318160CF07BC06D89DC
:1012E0007E898F89988D20E030E04AE754E40E949F
:1012F0001903DC01CB018C879D87AE87BF876C8586
:101300007D858E859F8520E030E04AEF54E40E9481
:101310001F02DC01CB0188879987AA87BB87688574
:1013200079858A859B8520E030E040E85FE30E9474
:10133000250488232CF481E090E09F838E833FC0B6
:10134000688579858A859B8520E03FEF4FE757E4E4
:101350000E94C50318164CF56C857D858E859F858A
:1013600020E030E040E251E40E941F02DC01CB01AA
:10137000BC01CD010E944900DC01CB019F838E831B
:101380000FC088EC90E09D838C838C819D810197B8
:10139000F1F79D838C838E819F8101979F838E833C
:1013A0008E819F81009769F724C0688579858A8539
:1013B0009B850E944900DC01CB019F838E838E8137
:1013C0009F819B838A838A819B810197F1F79B830D
:1013D0008A830FC069897A898B899C890E94490018
:1013E000DC01CB01888B8889898389818A95F1F713
:1013F000898381E062E040E00E941F0F898D6A9638
:101400000FB6F894DEBF0FBECDBFCF91DF91089528
:10141000DF93CF93CDB7DEB76A970FB6F894DEBFF0
:101420000FBECDBF8A8F81E0898F81E060E040E010
:101430000E941F0F81E061E040E00E941F0F82E0E8
:101440006A8D0E949F1181E062E041E00E941F0FBF
:1014500080E090E0A0E8BFE38D8B9E8BAF8BB88FD0
:101460006D897E898F89988D2BEA3AEA4AE250E4A9
:101470000E941F02DC01CB01898B9A8BAB8BBC8B4A
:1014800069897A898B899C8920E030E040E85FE3B4
:101490000E94250488231CF481E0888B91C069890F
:1014A0007A898B899C8920E030E04FE753E40E94E1
:1014B000C50318160CF07BC06D897E898F89988DC5
:1014C00020E030E04AE754E40E941903DC01CB013C
:1014D0008C879D87AE87BF876C857D858E859F8530
:1014E00020E030E04AEF54E40E941F02DC01CB010F
:1014F00088879987AA87BB87688579858A859B8530
:1015000020E030E040E85FE30E94250488232CF4CB
:1015100081E090E09F838E833FC0688579858A85CE
:101520009B8520E03FEF4FE757E40E94C503181664
:101530004CF56C857D858E859F8520E030E040E20E
:1015400051E40E941F02DC01CB01BC01CD010E94CD
:101550004900DC01CB019F838E830FC088EC90E0B3
:101560009D838C838C819D810197F1F79D838C8372
:101570008E819F8101979F838E838E819F810097AB
:1015800069F724C0688579858A859B850E94490012
:10159000DC01CB019F838E838E819F819B838A8315
:1015A0008A819B810197F1F79B838A830FC06989A8
:1015B0007A898B899C890E944900DC01CB01888B48
:1015C0008889898389818A95F1F7898381E062E03E
:1015D00040E00E941F0F898D6A960FB6F894DEBF17
:1015E0000FBECDBFCF91DF910895DF93CF9300D091
:1015F0000F92CDB7DEB78A836B8381E089838A81BE
:10160000882F90E000249695879507949695879566
:101610000794982F802D8068982F8B81890F0E94C6
:10162000080A89810F900F900F90CF91DF91089554
:10163000DF93CF93CDB7DEB781E00E94080ACF9148
:10164000DF910895DF93CF9300D000D000D0CDB7C5
:10165000DEB78A836B834C833E832D838C81882FF6
:1016600090E00896880F991F880F991F880F991F7F
:101670000E94080A19820EC08981282F30E08D81CE
:101680009E81FC01E20FF31F80810E941B0989816A
:101690008F5F89838981883078F38A816B810E948A
:1016A000F50A8C810E941B0926960FB6F894DEBFBE
:1016B0000FBECDBFCF91DF910895DF93CF9300D0C0
:1016C000CDB7DEB79A8389830AC0E981FA81808128
:1016D0000E941B0989819A8101969A838983E981F5
:1016E000FA818081882389F781E00F900F90CF9154
:1016F000DF910895DF93CF93CDB7DEB760970FB634
:10170000F894DEBF0FBECDBF9A8789872DB73EB74D
:10171000388B2F878DB79EB79C878B8781E090E0B1
:101720009E838D8389859A859C838B831A821982F7
:101730008B819C812AE030E0B9010E94BF1ACB0165
:101740009C838B8389819A8101969A8389838B817B
:101750009C81009769F789819A81880F991F2DB71D
:101760003EB7281B390B0FB6F8943EBF0FBE2DBFF6
:101770008DB79EB701969E878D878D859E85009635
:101780009E878D872D853E8538872F8389819A8115
:1017900001979C838B8324C0EB81FC8189859A858A
:1017A0002AE030E0B9010E94AB1AC096AC012F814B
:1017B0003885CF01880F991FF901E80FF91F518370
:1017C000408389859A852AE030E0B9010E94AB1AEE
:1017D000CB019A8789878B819C8101979C838B831E
:1017E0008B819C819923C4F61C821B8212C08B8141
:1017F0009C812F813885880F991FF901E80FF91F07
:10180000808191810E941B098B819C8101969C8320
:101810008B832B813C8189819A81281739073CF37E
:101820008D812B853C850FB6F8943EBF0FBE2DBF32
:101830002F8538890FB6F8943EBF0FBE2DBF609636
:101840000FB6F894DEBF0FBECDBFCF91DF910895E4
:10185000DF93CF93CDB7DEB76A970FB6F894DEBFAC
:101860000FBECDBF898F6A8F898D6A8D41E00E943E
:101870001F0F80E090E0A0E2B1E48D8B9E8BAF8BD8
:10188000B88F6D897E898F89988D2BEA3AEA4AE272
:1018900050E40E941F02DC01CB01898B9A8BAB8B39
:1018A000BC8B69897A898B899C8920E030E040E88B
:1018B0005FE30E94250488231CF481E0888B91C09B
:1018C00069897A898B899C8920E030E04FE753E46D
:1018D0000E94C50318160CF07BC06D897E898F8924
:1018E000988D20E030E04AE754E40E941903DC01BF
:1018F000CB018C879D87AE87BF876C857D858E8564
:101900009F8520E030E04AEF54E40E941F02DC0192
:10191000CB0188879987AA87BB87688579858A855F
:101920009B8520E030E040E85FE30E9425048823A7
:101930002CF481E090E09F838E833FC06885798599
:101940008A859B8520E03FEF4FE757E40E94C5035F
:1019500018164CF56C857D858E859F8520E030E0DE
:1019600040E251E40E941F02DC01CB01BC01CD0129
:101970000E944900DC01CB019F838E830FC088EC5D
:1019800090E09D838C838C819D810197F1F79D83ED
:101990008C838E819F8101979F838E838E819F810F
:1019A000009769F724C0688579858A859B850E94A0
:1019B0004900DC01CB019F838E838E819F819B83B5
:1019C0008A838A819B810197F1F79B838A830FC069
:1019D00069897A898B899C890E944900DC01CB0145
:1019E000888B8889898389818A95F1F78983898D94
:1019F0006A8D40E00E941F0F0E9453156A960FB631
:101A0000F894DEBF0FBECDBFCF91DF910895DF9375
:101A1000CF9300D0CDB7DEB79A83898380E060E0B2
:101A20000E94F50A80E690E00E945D0B80E069E08C
:101A30000E94F50A89819A810E947A0B89819A8194
:101A40008436910540F480E06BE00E94F50A8AE656
:101A500090E00E945D0B89819A818A30910540F463
:101A600080E06AE00E94F50A8AE690E00E945D0B41
:101A700080E06CE00E94F50A8CE690E00E945D0B2D
:101A80000F900F90CF91DF910895DF93CF93CDB753
:101A9000DEB72C970FB6F894DEBF0FBECDBF8A839A
:101AA0006B834C8319828B81883008F0BEC18A8198
:101AB000843008F0BAC181E089838C81282F30E01E
:101AC0003C872B878B859C858130910509F47AC0F2
:101AD0002B853C852230310509F432C18B859C85EC
:101AE000009709F0A1C18A81282F30E03A87298721
:101AF00089859A858130910549F129853A85223079
:101B000031052CF489859A85009761F08EC129856D
:101B10003A852230310571F189859A8583309105A6
:101B2000E9F183C1AAE3B0E0EAE3F0E08081482F65
:101B30008B81282F30E081E090E0022E02C0880FD8
:101B4000991F0A94E2F7842B8C936FC1A7E3B0E04E
:101B5000E7E3F0E08081482F8B81282F30E081E09F
:101B600090E0022E02C0880F991F0A94E2F7842B9E
:101B70008C935BC1A4E3B0E0E4E3F0E08081482F04
:101B80008B81282F30E081E090E0022E02C0880F88
:101B9000991F0A94E2F7842B8C9347C1A1E3B0E02C
:101BA000E1E3F0E08081482F8B81282F30E081E055
:101BB00090E0022E02C0880F991F0A94E2F7842B4E
:101BC0008C9333C18A81282F30E038872F838F810F
:101BD00098858130910509F43EC02F8138852230E7
:101BE00031052CF48F819885009771F01EC12F81EB
:101BF00038852230310509F455C08F8198858330AE
:101C0000910509F476C011C1AAE3B0E0EAE3F0E07F
:101C10008081482F8B81282F30E081E090E002C046
:101C2000880F991F2A95E2F7809584238C93ABE364
:101C3000B0E0EBE3F0E08081482F8B81282F30E08B
:101C400081E090E0022E02C0880F991F0A94E2F70B
:101C5000842B8C93EAC0A7E3B0E0E7E3F0E0808157
:101C6000482F8B81282F30E081E090E002C0880F60
:101C7000991F2A95E2F7809584238C93A8E3B0E01E
:101C8000E8E3F0E08081482F8B81282F30E081E06D
:101C900090E0022E02C0880F991F0A94E2F7842B6D
:101CA0008C93C3C0A4E3B0E0E4E3F0E08081482F6C
:101CB0008B81282F30E081E090E002C0880F991FCF
:101CC0002A95E2F7809584238C93A5E3B0E0E5E3C1
:101CD000F0E08081482F8B81282F30E081E090E078
:101CE000022E02C0880F991F0A94E2F7842B8C936E
:101CF0009CC0A1E3B0E0E1E3F0E08081482F8B815C
:101D0000282F30E081E090E002C0880F991F2A95CB
:101D1000E2F7809584238C93A2E3B0E0E2E3F0E065
:101D20008081482F8B81282F30E081E090E0022EC7
:101D300002C0880F991F0A94E2F7842B8C9375C018
:101D40008A81282F30E03E832D838D819E818130D2
:101D5000910559F12D813E81223031052CF48D8180
:101D60009E81009769F061C02D813E81223031054E
:101D700089F18D819E818330910509F440C055C061
:101D8000AAE3B0E0EAE3F0E08081482F8B81282FBE
:101D900030E081E090E0022E02C0880F991F0A9483
:101DA000E2F7809584238C9340C0A7E3B0E0E7E39B
:101DB000F0E08081482F8B81282F30E081E090E097
:101DC000022E02C0880F991F0A94E2F7809584239F
:101DD0008C932BC0A4E3B0E0E4E3F0E08081482FD3
:101DE0008B81282F30E081E090E0022E02C0880F26
:101DF000991F0A94E2F7809584238C9316C0A1E37F
:101E0000B0E0E1E3F0E08081482F8B81282F30E0C3
:101E100081E090E0022E02C0880F991F0A94E2F739
:101E2000809584238C9301C0198289812C960FB6EA
:101E3000F894DEBF0FBECDBFCF91DF910895DF9341
:101E4000CF93CDB7DEB72A970FB6F894DEBF0FBE9B
:101E5000CDBF8A836B834C838B81883008F0FAC0B6
:101E60008A81843008F0F6C081E089838C81282F34
:101E700030E03A87298789859A85009709F475C0EB
:101E800029853A852130310509F0E3C08A81282F60
:101E900030E038872F838F8198858130910549F113
:101EA0002F813885223031052CF48F819885009759
:101EB00061F0D0C02F8138852230310571F18F81DA
:101EC000988583309105E9F1C5C0ABE3B0E0EBE361
:101ED000F0E08081482F8B81282F30E081E090E076
:101EE000022E02C0880F991F0A94E2F7842B8C936C
:101EF000B1C0A8E3B0E0E8E3F0E08081482F8B8137
:101F0000282F30E081E090E0022E02C0880F991F58
:101F10000A94E2F7842B8C939DC0A5E3B0E0E5E33F
:101F2000F0E08081482F8B81282F30E081E090E025
:101F3000022E02C0880F991F0A94E2F7842B8C931B
:101F400089C0A2E3B0E0E2E3F0E08081482F8B811A
:101F5000282F30E081E090E0022E02C0880F991F08
:101F60000A94E2F7842B8C9375C08A81282F30E085
:101F70003E832D838D819E818130910559F12D8184
:101F80003E81223031052CF48D819E81009769F0CD
:101F900061C02D813E812230310589F18D819E8184
:101FA0008330910509F440C055C0ABE3B0E0EBE3EA
:101FB000F0E08081482F8B81282F30E081E090E095
:101FC000022E02C0880F991F0A94E2F7809584239D
:101FD0008C9340C0A8E3B0E0E8E3F0E08081482FB4
:101FE0008B81282F30E081E090E0022E02C0880F24
:101FF000991F0A94E2F7809584238C932BC0A5E364
:10200000B0E0E5E3F0E08081482F8B81282F30E0BD
:1020100081E090E0022E02C0880F991F0A94E2F737
:10202000809584238C9316C0A2E3B0E0E2E3F0E055
:102030008081482F8B81282F30E081E090E0022EB4
:1020400002C0880F991F0A94E2F7809584238C932D
:1020500001C0198289812A960FB6F894DEBF0FBE9F
:10206000CDBFCF91DF910895DF93CF93CDB7DEB78A
:1020700027970FB6F894DEBF0FBECDBF8A836B8360
:102080005D834C838B81883008F07BC08A818430EB
:1020900008F077C08C819D81009709F472C081E0BF
:1020A00089838A81282F30E03F832E834E815F8190
:1020B0004130510559F18E819F818230910534F470
:1020C0002E813F812115310569F05BC04E815F8112
:1020D0004230510579F18E819F818330910509F459
:1020E0003DC04FC0E9E3F0E08081282F30E08B81D4
:1020F000882F90E0A90102C0559547958A95E2F78F
:10210000CA018170EC81FD8180833BC0E6E3F0E091
:102110008081282F30E08B81882F90E0A90102C0B8
:10212000559547958A95E2F7CA018170EC81FD814A
:10213000808327C0E3E3F0E08081282F30E08B81AB
:10214000882F90E0A90102C0559547958A95E2F73E
:10215000CA018170EC81FD81808313C0E0E3F0E06F
:102160008081282F30E08B81882F90E0A90102C068
:10217000559547958A95E2F7CA018170EC81FD81FA
:102180008083898127960FB6F894DEBF0FBECDBF3E
:10219000CF91DF910895DF93CF93CDB7DEB72B9723
:1021A0000FB6F894DEBF0FBECDBF8A836B83198252
:1021B0008A81843008F0B9C081E089838B81282F1F
:1021C00030E03B872A878A859B858130910509F419
:1021D0006CC02A853B8522303105C1F18A859B85FB
:1021E000009709F0A1C08A81282F30E0398728871D
:1021F0008885998581309105D1F0288539852230EF
:1022000031052CF488859985009761F08EC028856A
:1022100039852230310581F0888599858330910593
:1022200081F083C0EAE3F0E08FEF80837EC0E7E3D4
:10223000F0E08FEF808379C0E4E3F0E08FEF8083FC
:1022400074C0E1E3F0E08FEF80836FC08A81282FB4
:1022500030E03F832E838E819F8181309105C9F0CC
:102260002E813F81223031052CF48E819F81009791
:1022700061F05BC02E813F812230310571F08E818B
:102280009F818330910569F050C0EAE3F0E010824D
:102290004CC0E7E3F0E0108248C0E4E3F0E01082D5
:1022A00044C0E1E3F0E0108240C08A81282F30E092
:1022B0003D832C838C819D8181309105E9F02C81B7
:1022C0003D81223031052CF48C819D81009761F095
:1022D0002CC02C813D8122303105B1F08C819D8153
:1022E00083309105C9F021C0EAE3F0E01082EBE30E
:1022F000F0E08FEF808319C0E7E3F0E01082E8E3BD
:10230000F0E08FEF808311C0E4E3F0E01082E5E3BA
:10231000F0E08FEF808309C0E1E3F0E01082E2E3B8
:10232000F0E08FEF808301C0198289812B960FB670
:10233000F894DEBF0FBECDBFCF91DF910895DF933C
:10234000CF9300D000D00F92CDB7DEB78A836B83D6
:1023500019828A818430A0F581E089838A81282FBF
:1023600030E03D832C838C819D8181309105D1F0BB
:102370002C813D81223031052CF48C819D81009788
:1023800061F01EC02C813D812230310581F08C81AD
:102390009D818330910581F013C0EBE3F0E08B81E8
:1023A00080830EC0E8E3F0E08B81808309C0E5E321
:1023B000F0E08B81808304C0E2E3F0E08B818083D6
:1023C00089810F900F900F900F900F90CF91DF9118
:1023D0000895DF93CF9300D000D000D0CDB7DEB703
:1023E0008A837C836B8319828A81843008F040C0A1
:1023F0008B819C810097E1F181E089838A81282F7C
:1024000030E03E832D838D819E8181309105E1F006
:102410002D813E81223031052CF48D819E810097E3
:1024200061F026C02D813E8122303105A1F08D81E1
:102430009E8183309105B1F01BC0E9E3F0E080811B
:10244000EB81FC81808314C0E6E3F0E08081EB81C6
:10245000FC8180830DC0E3E3F0E08081EB81FC81AF
:10246000808306C0E0E3F0E08081EB81FC81808323
:10247000898126960FB6F894DEBF0FBECDBFCF91EF
:10248000DF910895DF93CF93CDB7DEB7EAE3F0E0B5
:102490008FEC8083E7E3F0E08FE38083E4E3F0E018
:1024A0008FEF8083E1E3F0E08AEB8083EBE3F0E001
:1024B00080E38083E8E3F0E01082E5E3F0E010825F
:1024C000E2E3F0E0108281E0CF91DF910895DF93A5
:1024D000CF930F92CDB7DEB7898389810E94801494
:1024E00089810E944A1680E061E040E00E941F0F4F
:1024F00080E062E040E00E941F0F0F90CF91DF91DB
:102500000895DF93CF93CDB7DEB780E061E041E07F
:102510000E941F0F80E062E041E00E941F0F80E0F8
:102520000E944A1680E00E948014CF91DF910895A6
:10253000DF93CF93CDB7DEB72E970FB6F894DEBFFB
:102540000FBECDBF8EEF0E94801480E061E040E0BE
:102550000E941F0F80E00E944A1680E062E041E086
:102560000E941F0F80E090E0A8ECB2E48B879C876C
:10257000AD87BE876B857C858D859E8520E030E0AC
:102580004AEF54E40E941F02DC01CB018F8398873D
:10259000A987BA876F81788589859A8520E030E0A0
:1025A00040E85FE30E94250488232CF481E090E05A
:1025B0009E838D833FC06F81788589859A8520E0D1
:1025C0003FEF4FE757E40E94C50318164CF56B85A3
:1025D0007C858D859E8520E030E040E251E40E94BC
:1025E0001F02DC01CB01BC01CD010E944900DC01CE
:1025F000CB019E838D830FC088EC90E09C838B83FE
:102600008B819C810197F1F79C838B838D819E81C7
:1026100001979E838D838D819E81009769F714C0F9
:102620006F81788589859A850E944900DC01CB01FC
:102630009E838D838D819E819A83898389819A81EE
:102640000197F1F79A8389830E94C6132E960FB6DD
:10265000F894DEBF0FBECDBFCF91DF910895DF9319
:10266000CF93CDB7DEB72E970FB6F894DEBF0FBE6F
:10267000CDBF80E00E94801480E061E041E00E94D4
:102680001F0F8EEF0E944A1680E062E040E00E9439
:102690001F0F80E090E0A8ECB2E48B879C87AD87A9
:1026A000BE876B857C858D859E8520E030E04AEF76
:1026B00054E40E941F02DC01CB018F839887A98715
:1026C000BA876F81788589859A8520E030E040E877
:1026D0005FE30E94250488232CF481E090E09E8330
:1026E0008D833FC06F81788589859A8520E03FEF93
:1026F0004FE757E40E94C50318164CF56B857C859F
:102700008D859E8520E030E040E251E40E941F026A
:10271000DC01CB01BC01CD010E944900DC01CB01F1
:102720009E838D830FC088EC90E09C838B838B818C
:102730009C810197F1F79C838B838D819E8101970A
:102740009E838D838D819E81009769F714C06F8170
:10275000788589859A850E944900DC01CB019E839A
:102760008D838D819E819A83898389819A81019746
:10277000F1F79A8389830E94C6132E960FB6F894B8
:10278000DEBF0FBECDBFCF91DF910895DF93CF9312
:10279000CDB7DEB72E970FB6F894DEBF0FBECDBF14
:1027A00080E061E040E00E941F0F80E062E040E0D6
:1027B0000E941F0F80E00E94801480E00E944A1651
:1027C00080E090E0A8ECB2E48B879C87AD87BE8761
:1027D0006B857C858D859E8520E030E04AEF54E452
:1027E0000E941F02DC01CB018F839887A987BA87DB
:1027F0006F81788589859A8520E030E040E85FE345
:102800000E94250488232CF481E090E09E838D8330
:102810003FC06F81788589859A8520E03FEF4FE73B
:1028200057E40E94C50318164CF56B857C858D8591
:102830009E8520E030E040E251E40E941F02DC016E
:10284000CB01BC01CD010E944900DC01CB019E837C
:102850008D830FC088EC90E09C838B838B819C815F
:102860000197F1F79C838B838D819E8101979E83D5
:102870008D838D819E81009769F714C06F81788563
:1028800089859A850E944900DC01CB019E838D8356
:102890008D819E819A83898389819A810197F1F73D
:1028A0009A8389832E960FB6F894DEBF0FBECDBFF4
:1028B000CF91DF910895DF93CF930F92CDB7DEB71D
:1028C000A3E5B0E0E3E5F0E0808180648C93A3E5CC
:1028D000B0E0E3E5F0E0808180628C93A3E5B0E0B6
:1028E000E3E5F0E080818F7E8C93A3E5B0E0E3E543
:1028F000F0E0808182608C930F90CF91DF910895FA
:10290000DF93CF9300D0CDB7DEB78983ECE5F0E05D
:10291000898180830F900F90CF91DF910895DF938D
:10292000CF9300D000D0CDB7DEB78A837C836B8392
:1029300081E089838B819C81009761F08A81882F57
:1029400090E0880F991FFC01EC51FF4F8B819C8117
:102950009183808389810F900F900F900F90CF917A
:10296000DF910895DF93CF93CDB7DEB7E3E5F0E0D5
:10297000A3E5B0E08C918083CF91DF9108951F9201
:102980000F920FB60F9211242F933F934F935F93A3
:102990006F937F938F939F93AF93BF93EF93FF9327
:1029A000DF93CF93CDB7DEB78091E8009091E90037
:1029B00001969093E9008093E8008091E80090915F
:1029C000E9002FE08334920799F4E2E5F0E080EC2F
:1029D00080838091E4009091E500009729F0E091D8
:1029E000E400F091E50009951092E9001092E800EA
:1029F000CF91DF91FF91EF91BF91AF919F918F9117
:102A00007F916F915F914F913F912F910F900FBEEA
:102A10000F901F9018951F920F920FB60F921124CE
:102A20002F933F934F935F936F937F938F939F93D6
:102A3000AF93BF93EF93FF93DF93CF93CDB7DEB701
:102A40008091EA009091EB0001969093EB008093C7
:102A5000EA008091EA009091EB0027E28031920732
:102A600079F48091E6009091E700009729F0E091D9
:102A7000E600F091E70009951092EB001092EA0051
:102A8000CF91DF91FF91EF91BF91AF919F918F9186
:102A90007F916F915F914F913F912F910F900FBE5A
:102AA0000F901F901895DF93CF930F92CDB7DEB79D
:102AB00081E08983AFE4B0E0EFE4F0E080818E7FD5
:102AC0008C93AFE4B0E0EFE4F0E080818D7F8C93F5
:102AD000AEE4B0E0EEE4F0E08081877F8C93AEE47A
:102AE000B0E0EEE4F0E080818F7E8C93AEE4B0E065
:102AF000EEE4F0E0808181608C9389810F90CF912A
:102B0000DF910895DF93CF93CDB7DEB7EEE4F0E029
:102B1000AEE4B0E08C918083CF91DF910895DF9394
:102B2000CF9300D00F92CDB7DEB79A838983EAE4C2
:102B3000F0E089819A81918380830F900F900F90AC
:102B4000CF91DF910895DF93CF93CDB7DEB7ECE45B
:102B5000F0E080819181CF91DF910895DF93CF9351
:102B60000F92CDB7DEB70E945315AEE4B0E0EEE4AD
:102B7000F0E0808180648C93A9E5B0E0E9E5F0E0C5
:102B8000808180628C930F90CF91DF910895DF93C5
:102B9000CF93CDB7DEB78091EC009091ED00CF914F
:102BA000DF9108951F920F920FB60F9211242F9369
:102BB0003F938F939F93AF93BF93EF93FF93DF93D5
:102BC000CF9300D0CDB7DEB7E6E4F0E0808191810D
:102BD0009A8389838091EE00882389F489819A8180
:102BE0009093F0008093EF0081E08093EE00AEE4DC
:102BF000B0E0EEE4F0E080818F7B8C9315C02091F3
:102C0000EF003091F00089819A81821B930B9093A1
:102C1000ED008093EC001092EE00AEE4B0E0EEE444
:102C2000F0E0808180648C930F900F90CF91DF91C2
:102C3000FF91EF91BF91AF919F918F913F912F9114
:102C40000F900FBE0F901F901895DF93CF930F92A8
:102C5000CDB7DEB7A5E4B0E0E5E4F0E080818064C4
:102C60008C93A5E4B0E0E5E4F0E0808180628C9391
:102C7000A5E4B0E0E5E4F0E080818F7E8C93A5E4EC
:102C8000B0E0E5E4F0E0808182608C930F90CF911A
:102C9000DF910895DF93CF9300D0CDB7DEB789835E
:102CA000E3E4F0E0898180830F900F90CF91DF9172
:102CB0000895DF93CF93CDB7DEB7E5E4F0E0A5E468
:102CC000B0E08C918083CF91DF910895DF93CF9313
:102CD00000D000D0CDB7DEB780E88B8383E390E0EF
:102CE0009A838983ABE2B0E0EBE2F0E080818D7FF4
:102CF0008C93AAE2B0E0EAE2F0E0808188608C93F5
:102D0000AAE2B0E0EAE2F0E0808180618C93AAE27E
:102D1000B0E0EAE2F0E080818B7F8C938B8184606D
:102D20008B838B8182608B838B8188608B83E0E4D3
:102D3000F0E08B818083E9E2F0E089818083E0E448
:102D4000F0E089819A81892F992780830F900F90D5
:102D50000F900F90CF91DF910895DF93CF930F9253
:102D6000CDB7DEB70BC080E065E09E012F5F3F4F1F
:102D7000A9010E9434108981813029F0EBE2F0E052
:102D80008081882384F7ECE2F0E080810F90CF917E
:102D9000DF910895DF93CF9300D0CDB7DEB789835D
:102DA000EBE2F0E08081829586958770882F90E035
:102DB000817090700097A1F3ECE2F0E0898180834C
:102DC0000F900F90CF91DF910895DF93CF9300D0B4
:102DD0000F92CDB7DEB79B838A8381E089838A8196
:102DE0009B81009789F00AC0EA81FB8180810E9463
:102DF000CA168A819B8101969B838A83EA81FB8123
:102E00008081882389F701C0198289810F900F90F2
:102E10000F90CF91DF910895DF93CF9300D000D032
:102E20000F92CDB7DEB79B838A837D836C8381E06D
:102E300089838A819B810097C1F08C819D81009755
:102E4000A1F08C819D819093F2008093F1008A81A2
:102E50009B819093F4008093F300AAE2B0E0EAE251
:102E6000F0E0808180628C9301C0198289810F908B
:102E70000F900F900F900F90CF91DF9108951F92B8
:102E80000F920FB60F9211242F933F934F935F939E
:102E90006F937F938F939F93AF93BF93EF93FF9322
:102EA000DF93CF93CDB7DEB72091F3003091F400DC
:102EB0008091F500882F90E0F901E80FF91F8081DB
:102EC0000E94CA168091F5008F5F8093F5002091D3
:102ED000F3003091F4008091F500882F90E0F90123
:102EE000E80FF91F8081882371F4AAE2B0E0EAE2DA
:102EF000F0E080818F7D8C931092F500E091F100DD
:102F0000F091F2000995CF91DF91FF91EF91BF9180
:102F1000AF919F918F917F916F915F914F913F9171
:102F20002F910F900FBE0F901F901895DF93CF93A6
:102F3000CDB7DEB7EF970FB6F894DEBF0FBECDBFAB
:102F4000AFE5B0E0EFE5F0E0808180688C930E940F
:102F500042120E944F060E945B140E9425160E9496
:102F6000AE150E9466161CAE1BAE8CED8AAF83E5D3
:102F700089AF9E01215C3F4F80E065E0A9010E947E
:102F8000341080E090E0A0EAB1E48DAB9EABAFAB33
:102F9000B8AF6DA97EA98FA998AD20E030E04AEFC7
:102FA00054E40E941F02DC01CB0189AB9AABABABAE
:102FB000BCAB69A97AA98BA99CA920E030E040E8C4
:102FC0005FE30E94250488232CF481E090E098AB15
:102FD0008FA73FC069A97AA98BA99CA920E03FEFE0
:102FE0004FE757E40E94C50318164CF56DA97EA95A
:102FF0008FA998AD20E030E040E251E40E941F022A
:10300000DC01CB01BC01CD010E944900DC01CB01F8
:1030100098AB8FA70FC088EC90E09EA78DA78DA5D9
:103020009EA50197F1F79EA78DA78FA598A9019757
:1030300098AB8FA78FA598A9009769F714C069A9C5
:103040007AA98BA99CA90E944900DC01CB0198AB0D
:103050008FA78FA598A99CA78BA78BA59CA5019747
:10306000F1F79CA78BA78FAD813009F0F6C080E007
:1030700060E00E94F50A8FE690E00E945D0B80E020
:1030800090E8ABE3B5E48FA398A7A9A7BAA76FA16F
:1030900078A589A59AA520E030E04AEF54E40E9483
:1030A0001F02DC01CB018BA39CA3ADA3BEA36BA12C
:1030B0007CA18DA19EA120E030E040E85FE30E946A
:1030C000250488232CF481E090E09AA389A33FC0D3
:1030D0006BA17CA18DA19EA120E03FEF4FE757E4BB
:1030E0000E94C50318164CF56FA178A589A59AA56D
:1030F00020E030E040E251E40E941F02DC01CB01FD
:10310000BC01CD010E944900DC01CB019AA389A337
:103110000FC088EC90E098A38F8F8F8D98A10197B6
:10312000F1F798A38F8F89A19AA101979AA389A3F8
:1031300089A19AA1009769F714C06BA17CA18DA108
:103140009EA10E944900DC01CB019AA389A389A119
:103150009AA19E8F8D8F8D8D9E8D0197F1F79E8FF9
:103160008D8F0E94180B81E064E00E94280C0E9461
:10317000C7159CAF8BAF8BAD9CAD2CEB31E0B9018B
:103180000E94AB1ACB019CAF8BAF8BAD9CAD0E9464
:10319000070D9E01235C3F4F81E066E0A9010E947C
:1031A00034109E01225C3F4F81E067E0A9010E943C
:1031B00034108BAD9CAD8031910580F481E065E0E9
:1031C00041E00E941F0F81E062E00E94F50A8DE756
:1031D00090E00E945D0B0E94C61332C08BAD9CAD87
:1031E0008031910568F18BAD9CAD8837910540F534
:1031F00081E065E040E00E941F0F81E062E00E94F4
:10320000F50A8AE890E00E945D0B8DAD882339F4C1
:103210008EAD882321F48AAD0E94671211C08DAD56
:10322000882331F48EAD813019F40E942F1308C029
:103230008DAD813029F48EAD882311F40E9498124F
:103240009E01215C3F4F80E065E0A9010E9434109F
:103250008FAD882309F47CC186CF8FAD882309F018
:1032600077C180E060E00E94F50A87E990E00E9463
:103270005D0B80E090E8ABE3B5E4898F9A8FAB8F6C
:10328000BC8F698D7A8D8B8D9C8D20E030E04AEF6C
:1032900054E40E941F02DC01CB018D8B9E8BAF8B0F
:1032A000B88F6D897E898F89988D20E030E040E865
:1032B0005FE30E94250488232CF481E090E09C8B3E
:1032C0008B8B3FC06D897E898F89988D20E03FEF81
:1032D0004FE757E40E94C50318164CF5698D7A8DA7
:1032E0008B8D9C8D20E030E040E251E40E941F0273
:1032F000DC01CB01BC01CD010E944900DC01CB0106
:103300009C8B8B8B0FC088EC90E09A8B898B898982
:103310009A890197F1F79A8B898B8B899C89019700
:103320009C8B8B8B8B899C89009769F714C06D8966
:103330007E898F89988D0E944900DC01CB019C8B8E
:103340008B8B8B899C89988B8F878F859889019728
:10335000F1F7988B8F870E94180B80E061E00E9444
:10336000F50A86EA90E00E945D0B80E067E00E942B
:10337000F50A8AAD882F90E00E947A0B80E069E020
:103380000E94F50A8DEA90E00E945D0B89AD8634BB
:1033900061F48AAD0E94671281E060E00E94F50A44
:1033A0008FEA90E00E945D0B52C089AD823461F4D7
:1033B0008AAD0E94811281E060E00E94F50A88EBEC
:1033C00090E00E945D0B43C089AD823559F40E94A4
:1033D000981281E060E00E94F50A81EC90E00E9482
:1033E0005D0B35C089AD8C3459F40E942F1381E0F8
:1033F00060E00E94F50A8AEC90E00E945D0B27C015
:1034000089AD833559F40E94C61381E060E00E94C3
:10341000F50A83ED90E00E945D0B19C089AD803301
:10342000B0F089AD8A3398F489AD882F90E09C0183
:10343000220F331F220F331FC901880F991F880FD6
:10344000991F880F991F821B930B80548AAF0E948B
:10345000AD1689AF80E090E0A8E4B2E48B879C874A
:10346000AD87BE876B857C858D859E8520E030E0AD
:103470004AEF54E40E941F02DC01CB018F8398873E
:10348000A987BA876F81788589859A8520E030E0A1
:1034900040E85FE30E94250488232CF481E090E05B
:1034A0009E838D833FC06F81788589859A8520E0D2
:1034B0003FEF4FE757E40E94C50318164CF56B85A4
:1034C0007C858D859E8520E030E040E251E40E94BD
:1034D0001F02DC01CB01BC01CD010E944900DC01CF
:1034E000CB019E838D830FC088EC90E09C838B83FF
:1034F0008B819C810197F1F79C838B838D819E81C9
:1035000001979E838D838D819E81009769F714C0FA
:103510006F81788589859A850E944900DC01CB01FD
:103520009E838D838D819E819A83898389819A81EF
:103530000197F1F79A8389839E01215C3F4F80E0D8
:1035400065E0A9010E9434108FAD813009F00DCFE4
:103550000E94180B0ECDAA1BBB1B51E107C0AA1F6E
:10356000BB1FA617B70710F0A61BB70B881F991F24
:103570005A95A9F780959095BC01CD01089597FBC8
:10358000092E07260AD077FD04D0E5DF06D00020FB
:103590001AF4709561957F4F0895F6F7909581958F
:1035A0009F4F08952F923F924F925F926F927F921A
:1035B0008F929F92AF92BF92CF92DF92EF92FF9243
:1035C0000F931F93CF93DF93CDB7DEB7CA1BDB0BEF
:1035D0000FB6F894DEBF0FBECDBF09942A88398894
:1035E00048885F846E847D848C849B84AA84B9849B
:1035F000C884DF80EE80FD800C811B81AA81B981A7
:10360000CE0FD11D0FB6F894DEBF0FBECDBFED01BA
:063610000895F894FFCFBD
:1036160044697374616E63653A002000636D004C03
:10362600494E4520464F4C4C4F574552004F42534A
:103636005441434C452021212100202020202020D8
:1036460020202020202000424C5545544F4F5448FE
:10365600204D4F44450053706565643A002000468E
:103666006F727761726420004261636B7761726486
:10367600005269676874202020004C65667420201B
:1036860020200053746F70202020200000000000CE
:043696000000000030
:00000001FF
